:040000000DEF00F010
:0400080020EF01F0F4
:10001800FF005BEF01F090BE14EF00F016EF00F068
:100028001DEF00F090AC1BEF00F01DEF00F01FEF8C
:1000380000F0909E909C3901A5A125EF00F027EFD4
:1000480000F058EF00F06F0008FE0CF0050E0D6E82
:10005800D8900C320D2E2CEF00F00C506F0004FEDF
:100068000EF00F6AD8900E360F36D8900E360F362F
:10007800D8900E360F360E10106E0F50116E855038
:100088000F0B126E130E016E000E026E860E036EBB
:100098003F0E046E12C005F0066AF3EC00F0390159
:1000A800A591809EC4EF00F0A5A35DEF00F05FEF7F
:1000B80000F092EF00F06D00C8FF0CF0050E0D6E19
:1000C800D8900C320D2E64EF00F00C506D00C4FF78
:1000D8000EF00F6AD8900E360F36D8900E360F36BF
:1000E800D8900E360F360E101B6E0F501C6E37014F
:1000F800F5510F0B1D6E1E0E016E000E026EF60EF0
:10010800036E370E046E1DC005F0066AF3EC00F0AE
:100118003901A5933701F09FC4EF00F0A5A597EF2B
:1001280000F099EF00F09CEF00F0A595C4EF00F007
:10013800A5A7A1EF00F0A3EF00F0A6EF00F0A597A8
:10014800C4EF00F0A5A9ABEF00F0ADEF00F0B0EF01
:1001580000F0A599C4EF00F0A5AFB5EF00F0B7EF38
:1001680000F0BAEF00F0A59FC4EF00F0A5ABBFEF19
:1001780000F0C1EF00F0C4EF00F0A59BC4EF00F061
:100188001200000E3E01DE6F000EDF6F000EE06F02
:10019800000EE16F000EE46F000EE56F000EEA6FCF
:1001A800000EEC6F000EF16F000EF36F000EF46F8F
:1001B800000EF56F000EF66F000EF76F000EF96F68
:1001C800000EFA6F000EFB6F000EFC6F000EFD6F45
:1001D800000EFE6F000EFF6F840EF86F120003C052
:1001E80009F004C00AF001C007F002C008F012EFDD
:1001F80001F0600027F0D9FF60002BF0DAFFDF5034
:100208000B6E094A0A2A60001FF0D9FF600023F02C
:10021800DAFF60002FF0DFFF074A082A0506D8A09A
:100228000606052806E10628D8A41DEF01F01FEFF1
:1002380001F0FDEF00F012003901A551D8B427EF05
:1002480001F029EF01F02BEF01F00FEC00F039017C
:1002580093AF31EF01F033EF01F03EEF01F0A3AFC0
:1002680038EF01F03AEF01F03EEF01F08EEC01F0CB
:100278003901A39F1100000EBA6E000EBB6E000E6E
:10028800BC6EC268C368C4683A0160695069406955
:10029800000E816F000E516F000E416F000E616FEE
:1002A800000E426F000E526F000E626F1200940E25
:1002B800F66E030EF76E000EF86E09006F00D4FF9D
:1002C80043F000EE26F01D0EEE6AE806FDE1080E8A
:1002D800D56E000ED66E000ED76E000EF86E0001B9
:1002E800BEEF01F0F00E3901D917700ED913DBA952
:1002F80080EF01F082EF01F07BEF01F0700EDA1968
:10030800D8B489EF01F08BEF01F08DEF01F08BEF9E
:1003180001F01200400E38267D0E386496EF01F089
:1003280098EF01F0A0EF01F07D0E385E010E262651
:10033800000E2722282229221200000E3901C06F40
:10034800000EC16F000EC26F000EC36F000EC46FA7
:10035800000EC56F000EC66F000EC76F1200A1EC2D
:1003680001F03FEC01F076EC01F0C5EC00F0C6ECD2
:1003780001F01200B3EC01F076EC01F0C2EF01F0ED
:0D0388000DEF00F08F0E3E01C16F1200025C
:020000040020DA
:10000000FF0FFF0FFF0FFF0FFF0FFF0FFF0FFF0F80
:020000040030CA
:0A000000EAFFF7FF9FFFFFFFFFFF7D
:00000001FF
