:0400000080313928EA
:100008007E1480310B1F09280A2837282100111C6B
:100018000E280F2837282000111C132814283728E9
:100028000130D5070030D63D653055065604031D0E
:100038001E281F283628AD30A0000730A100023046
:10004800FB007B08A2009930FB007B08A300CC30A2
:10005800FB007B08A400203081316F218031200013
:10006800D501D60111107E10090080313B282000EF
:10007800CF01D001D101D201D301D401D501D601DC
:100088007E1020008131D9292000BA003108D4001F
:100098003008D3003308D2003208D1003508D00028
:1000A8003408CF00AB01AB0A50088A004F080A0099
:1000B800803180302000B6003608AD000F30823124
:1000C800652280310F30823135228031003A0319A0
:1000D8006E286F28662820003A08860087013A0AA9
:1000E800840085010008B6000530B635FF3E031DC3
:1000F800792836350104B7003708AD002A30823137
:100108006522803120003A08053E860087013A08BA
:10011800033E840085010008B6000330B635890B1C
:1001280092283A08023E840085010008B70006308C
:10013800B735890B9C283A08063E840085010008DB
:10014800B8000630B835FF3E031DA62838353704F9
:1001580036040104B9003908AD002930823165221E
:10016800803120003A0886008701443FAD002830DE
:1001780082316522803130302000B6003608AD006B
:10018800603082316522803130302000B600360878
:10019800AD0070308231652280312000AD012C30F5
:1001A80082316522803123302000B6003608AD0048
:1001B8002B308231652280310F302000B60036089E
:1001C800AD000C308231652280310C302000B60041
:1001D8003608AD000F308231652280310F30823110
:1001E80035228031E039031DFA28FB28F22808005F
:1001F8002000B500AD012C3082316522803120000D
:10020800AD012D308231652280312000350886000D
:100218008701403FB000413FB100B136B00CB13664
:10022800B00CB136B00C3008B2003208AD00313035
:100238008231652280312000350886008701010857
:100248000739B0000430B035FF3E031D272930358B
:10025800B1003108AD003230823165228031200092
:10026800B301B4014A29200033083507B00030082B
:1002780086008701433FAD003308363E8231652250
:10028800803101302000B3070030B43D3508023E0C
:10029800860087013408803AB00080303002031DA0
:1002A800572901083302031C5A295B2937292000E2
:1002B800350886008701423FAD003530823165221E
:1002C800803108302000B0003008AD003030823175
:1002D800652280310800FA00F2012C308231942224
:1002E8008131F2012D308231942281317A088600E1
:1002F8008701403FF500413FF600F636F50CF6362B
:10030800F50CF636F50C7508F7007708F200313071
:100318008231942281317A088600870101080739E1
:10032800F5000430F535FF3E031D96297535F600B6
:100338007608F2003230823194228131F801F901D5
:10034800B62978087A07F500750886008701433FC3
:10035800F2007808363E8231942281310130F80764
:100368000030F93D7A08023E860087017908803A14
:10037800F50080307502031DC32901087802031CAB
:10038800C629C729A5297A0886008701423FF200B5
:1003980035308231942281310830F5007508F20039
:1003A80030308231942281310800833147238131F2
:1003B8008231FE2281310B302000BB003B08C8008F
:1003C8000330BB003B08C900CE01CE0ACA01043085
:1003D800BB003B08CB00CD010430BB003B08CC0080
:1003E8000F30B0000330B100C330B2000230B300A8
:1003F800EB30B4000230B5004830803148208131FC
:100408008B170B172000C001BF01BF0AE030BD00E9
:100418000730BE0021008E123D308031FC20813132
:1004280022008E123D302000BC00E130BB003F307E
:10043800890B1C2ABB0B1C2ABC0B1C2A003222006D
:100448008E163D302000BC00E130BB003F30890BE8
:100458002B2ABB0B2B2ABC0B2B2A0032102A8031EB
:1004680039282000AE00AB0150088A004F080A0066
:10047800823103302000AD002D08AB0052088A00FD
:1004880051080A00823120002E08AD002D08AB006B
:1004980052088A0051080A008231200054088A0054
:1004A80053080A0082312000AD002D08AF00AB01CF
:1004B800AB0A50088A004F080A00823120002F0832
:1004C80008002000AF00AB0150088A004F080A005E
:1004D800823102302000AE002E08AB0052088A009C
:1004E80051080A00823120002F08AE002E08AB0008
:1004F80052088A0051080A00823120002D08AE00F7
:100508002E08AB0052088A0051080A0082312000E8
:10051800AB01AB0A50088A004F080A008231080074
:10052800F400F001200050088A004F080A008231C8
:100538000230F3007308F000200052088A005108C6
:100548000A0082317408F3007308F0002000520892
:100558008A0051080A0082317208F3007308F0001B
:10056800200052088A0051080A008231F001F00A7E
:10057800200050088A004F080A00823108007E1CBB
:10058800C72A83312B2B2400110820009111240045
:10059800951320002B08240091002000911DD52AD6
:1005A800D62AD12A080022008C0130308E00303043
:1005B80021008C0002308E0023008E0110308C0048
:1005C80024008C012100951722009D0108007E1C43
:1005D800EF2A8331392B20002B080319F42AF52A36
:1005E800F82A22008E15FD2AF730AC002C082200CC
:1005F8008E05080021000E108E140E11F830200010
:10060800AB002B0823008E05803024009400323084
:10061800950096010800240011082000911124007B
:1006280091012000911D192B1A2B152B240011085C
:1006380008007C3021009900980127009B012200C6
:10064800960121001A1F292B2A2B252B080024008C
:1006580011082000911124009513700891002000C2
:10066800911D372B382B332B0800700803193D2BAD
:100678003E2B412B22008E15462BF730F1007108D6
:1006880022008E0508008231D722833183311D2351
:10069800833183315D2383318331542383310800CF
:1006A800200018143F3098053030980421001114A8
:0A06B800080016302100970008002A
:020000040001F9
:04000E00E437CF3FC5
:00000001FF
